:100000000C943A010C9459010C9459010C94590127
:100010000C9459010C9459010C9459010C945901F8
:100020000C9459010C9459010C9459010C945901E8
:100030000C9459010C9459010C9459010C945901D8
:100040000C9459010C9459010C9459010C945901C8
:100050000C9459010C9459010C9459010C942608E4
:100060000C9459010C9459010C9459010C945901A8
:100070000C9459010C9459010C9459010C94590198
:100080000C9459010C9459010C9459010C94590188
:100090000C9459010C945901000000000000005F0D
:1000A00000000003000300143E143E14242A7F2A9B
:1000B000124333086661364955225000050300009B
:1000C000001C2241000041221C0014083E081408B4
:1000D000083E0808005030000008080808080060C2
:1000E00060000020100804023E5149453E00040211
:1000F0007F00426151494622414949361814127F16
:100100001027454545393E494949320101710907E2
:100110003649494936264949493E003636000000ED
:10012000563600000814224100141414141400411F
:1001300022140802015109063E4159555E7E090903
:10014000097E7F494949363E414141227F41414133
:100150003E7F494949417F090909013E4141493AE8
:100160007F0808087F00417F4100304040403F7FCA
:10017000081422417F404040407F020C027F7F02F2
:1001800004087F3E4141413E7F090909061E2121A5
:10019000215E7F09090976264949493201017F011B
:1001A000013F4040403F1F2040201F7F2010207F04
:1001B00041221C224107087008076151494543004C
:1001C0007F41000002040810200000417F0004026B
:1001D0000102044040404040000102040020545409
:1001E00054787F4444443838444444443844444474
:1001F0007F385454541804047E0505085454543C64
:100200007F0804047800447D40002040443D007F86
:100210001028440000417F40007C047804787C086A
:1002200004047838444444387C1414140808141422
:10023000147C007C080404485454542004043F44B3
:10024000443C4040207C1C2040201C3C4030403C32
:1002500044281028440C5050503C4464544C4400F2
:100260000836414100007F0000414136080002018C
:100270000204020011241FBECFEFD0E2DEBFCDBFCB
:1002800015E0A0E0B1E0E6E9F4E200E00BBF02C057
:1002900007900D92A634B107D9F715E0A6E4B5E0B2
:1002A00001C01D92AE3FB107E1F70E9404080C9413
:1002B00049120C94000093E89093B00091E0909361
:1002C000B1008093B30008959C01909350058093F2
:1002D0004F0586E390E0809300402115310589F4B5
:1002E00080EF90E090934C0580934B0580E491E083
:1002F00090934E0580934D0588E490E080930041F3
:100300003BC02130310589F480E491E090934C05A5
:1003100080934B0580EF90E090934E0580934D05C0
:1003200088EE90E08093004127C02230310589F4A7
:1003300080EF90E090934C0580934B0580E491E032
:1003400090934E0580934D0588E890E0809300419E
:1003500013C02330310581F480E491E090934C0583
:1003600080934B0580EF90E090934E0580934D0570
:1003700088E290E0809300418AE290E08093004020
:1003800020E030E0309300412093004180914B0504
:1003900090914C05019790930041809300418BE22E
:1003A00090E0809300403093004120930041809181
:1003B0004D0590914E050197909300418093004127
:1003C00008951F93682F873718F010E066E711C073
:1003D000883010F468E00CC08D3310F010E009C0D4
:1003E0008F3110F011E005C0803110F012E001C033
:1003F00013E081EB90E0809300401093004170E0A7
:10040000882777FD8095982F0E94600D9B01AC0195
:1004100060E070E080EF94E40E94840C0E94B409D4
:1004200070E002C0759567951A95E2F760930041F8
:100430001F9108950F931F93DF93CF93CDB7DEB72E
:1004400028970FB6F894DEBF0FBECDBF29833A833D
:100450004B835C836D837E838F83988769817A81E8
:100460002B813C81ED81FE814F8158858AE290E0AD
:1004700080930040709300416093004130930041AD
:10048000209300418BE290E080930040F093004184
:10049000E093004150930041409300418CE290E092
:1004A000809300402F5F3F4F261B370B4F5F5F4FFE
:1004B0004E1B5F0B24173507C8F4842F877090E01C
:1004C000829FB001839F700D929F700D1124F3E005
:1004D00056954795FA95E1F7842F90E0829FF001B9
:1004E000839FF00D929FF00D112418C0822F87700A
:1004F00090E0849FB001859F700D949F700D112432
:10050000E3E036952795EA95E1F7822F90E0849F06
:10051000F001859FF00D949FF00D1124862F8770B8
:1005200005C0109300410093004181508823C9F712
:10053000CB0123E0969587952A95E1F78E0F9F1FB3
:1005400021C010930041009300411093004100939B
:10055000004110930041009300411093004100932B
:10056000004110930041009300411093004100931B
:10057000004110930041009300411093004100930B
:10058000004101970097E9F628960FB6F894DEBF70
:100590000FBECDBFCF91DF911F910F910895EF92C4
:1005A000FF920F931F93DF93CF93CDB7DEB72897BA
:1005B0000FB6F894DEBF0FBECDBF29833A834B83BD
:1005C0005C836D837E838F83988729813A81AB8199
:1005D000BC81ED80FE806F8178858AE290E0809317
:1005E00000403093004120930041B0930041A0931C
:1005F00000418BE290E080930040F0920041E09255
:10060000004170930041609300418CE290E0809340
:1006100000400FC0F801819191918F0190930041AA
:10062000809300414F5F5F4F6417750798F72F5F06
:100630003F4FA217B30710F0A701F6CF28960FB6C9
:10064000F894DEBF0FBECDBFCF91DF911F910F9108
:10065000FF90EF9008950F931F93DF93CF93CDB743
:10066000DEB728970FB6F894DEBF0FBECDBF10924D
:100670005205109251051092540510925305209185
:100680004B0530914C052150304080914D059091A3
:100690004E0501971A821982422F3C832B831E82BA
:1006A0001D8298878F8300915705109158052981E5
:1006B0003A815C816D817E8198850E941A0228961C
:1006C0000FB6F894DEBF0FBECDBFCF91DF911F9163
:1006D0000F91089586E08093750080E88093740000
:1006E0003F9A249A80ED97E00197F1F7479880E4CC
:1006F0009CE90197F1F7479A80EB94E028EC30E011
:10070000F9013197F1F70197D9F788E290E08093EA
:10071000004081E190E08093004088E592E028EC81
:1007200030E0F9013197F1F70197D9F741E050E056
:100730008BEC90E0809300404093004180EC90E08F
:100740008093004088E096E29093004180930041BE
:1007500020E130E081EC90E0809300402093004164
:1007600085EC90E0809300408EE395E39093004108
:100770008093004125EB30E087EC90E080930040CF
:100780002093004186EF90E0809300404093004129
:1007900080E090E0909300418093004125E530E0B7
:1007A0008AE390E0809300402093004181E090E054
:1007B0000E9464010E942B03109252051092510571
:1007C0001092540510925305109258051092570537
:1007D0008FEF9FEF909356058093550589E290E047
:1007E0008093004084EF91E028EC30E0F9013197EC
:1007F000F1F70197D9F780E090E025E330E020930E
:1008000000408093004180916A00806280936A007A
:100810002C9A08950F931F93DF93CF93CDB7DEB734
:1008200028970FB6F894DEBF0FBECDBFE22F282F5A
:1008300089839A83862F6B837C83642F4D835E83A9
:10084000EF8338870091570510915805392F482FAD
:10085000572F7E818E2F98850E941A0228960FB6F8
:10086000F894DEBF0FBECDBFCF91DF911F910F91E6
:100870000895CF92DF92EF92FF920F931F93CF9341
:10088000DF93982F40915105509152058A010C5FDA
:100890001F4F20915305309154058A30A9F41092CE
:1008A000520510925105285F3F4F30935405209315
:1008B000530580914D0590914E052817390708F48E
:1008C00089C00E942B0386C080528F3508F082C0F9
:1008D000E901279685E09802F0011124E850F040E4
:1008E0008BE290E0809300403093004120930041E0
:1008F000D0930041C0930041BAE2CB2ED12CACE2A0
:10090000EA2EF12C29C0C092004050930041409340
:1009100000415093004140930041E0920040B49167
:10092000B901A1E013C08A2F8B2329F080915505CE
:100930009091560504C08091570590915805909369
:100940000041809300416F5F7F4FAA0FC617D70702
:1009500050F731964F5F5F4F04171507A0F68AE2F4
:1009600090E08093004050930041409300415093A9
:100970000041409300418CE290E0809300400AC027
:1009800080915705909158059093004180930041C4
:100990002F5F3F4FC217D30798F780915105909171
:1009A00052050596909352058093510520914B0571
:1009B00030914C058217930768F0109252051092FF
:1009C00051058091530590915405089690935405D4
:1009D00080935305DF91CF911F910F91FF90EF907E
:1009E000DF90CF9008951F93CF93DF93EC0110E039
:1009F00003C00E9439041F5FFE01E10FF11D8081D9
:100A00008823B9F7DF91CF911F9108951F93CF935A
:100A1000DF93EC0170935205609351055093540598
:100A20004093530510E003C00E9439041F5FFE018C
:100A3000E10FF11D80818823B9F7DF91CF911F91DC
:100A40000895709352056093510550935405409357
:100A500053050E9439040895EF92FF920F931F935C
:100A6000CF93DF93C0E0D0E010E8E12EF12C082F07
:100A700010E0C7010C2E02C0959587950A94E2F705
:100A800080239123892B11F081E301C08EE20E9423
:100A900039042196C830D10561F7DF91CF911F91BC
:100AA0000F91FF90EF9008952091630530916405B8
:100AB0004091650550916605260F371F481F591F45
:100AC0002093630530936405409365055093660554
:100AD00008952091590530915A0540915B05509138
:100AE0005C05260F371F481F591F20935905309367
:100AF0005A0540935B0550935C0508950F931F932F
:100B0000182F092F8AE090E00E94DE10FC01212FAF
:100B1000302F0CC0C9016AE070E00E948010818310
:100B2000C9016AE070E00E9480109B01223031050B
:100B30008CF7CF011F910F9108950F931F93DF93AF
:100B4000CF93CDB7DEB7C050D1400FB6F894DEBF1B
:100B50000FBECDBF8FEF9FEF909356058093550545
:100B600089E890E060E471E047EA50E02BEB30E088
:100B70000E940A0480E091E069E870E047EA50E0F2
:100B80000E9406056091630570916405809165057A
:100B9000909166058E010F5F1F4FA8012AE030E09B
:100BA0000E94E3110E94F30488E091E069E870E09C
:100BB00041EB50E00E94060580EE97E090935605C9
:100BC000809355058FE091E00E94F30460915905F0
:100BD00070915A0580915B0590915C05A8012AE00F
:100BE00030E00E94E3110E94F304C050DF4F0FB6C3
:100BF000F894DEBF0FBECDBFCF91DF911F910F9153
:100C000008958091630590916405A0916505B09168
:100C10006605803523EC920720E0A20720E0B207AA
:100C200054F18055934CA040B0408093630590935D
:100C30006405A0936505B093660580915905909170
:100C40005A05A0915B05B0915C0520915D0530913E
:100C50005E0540915F0550916005820F931FA41FB0
:100C6000B51F8093590590935A05A0935B05B093E7
:100C70005C050E949D05089580916305909164052F
:100C8000A0916505B091660580342FE1920720E0C0
:100C9000A20720E0B20754F180549F41A040B04029
:100CA0008093630590936405A0936505B0936605F2
:100CB0002091670530916805442737FD4095542FF2
:100CC0008091590590915A05A0915B05B0915C0502
:100CD000820F931FA41FB51F8093590590935A0547
:100CE000A0935B05B0935C050E949D0508958091DB
:100CF000630590916405A0916505B0916605883EF5
:100D000023E0920720E0A20720E0B20754F1885EBA
:100D10009340A040B0408093630590936405A093F6
:100D20006505B09366052091610530916205442701
:100D300037FD4095542F8091590590915A05A09107
:100D40005B05B0915C05820F931FA41FB51F8093B4
:100D5000590590935A05A0935B05B0935C050E94DA
:100D60009D0508958091630590916405A0916505A6
:100D7000B09166058C3221E0920720E0A20720E0C6
:100D8000B20754F18C529140A040B040809363056B
:100D900090936405A0936505B093660520916D0559
:100DA00030916E05442737FD4095542F80915905A9
:100DB00090915A05A0915B05B0915C05820F931F3D
:100DC000A41FB51F8093590590935A05A0935B0506
:100DD000B0935C050E949D0508950F931F93182FF3
:100DE000092F8091630590916405A0916505B091EC
:100DF00066052091590530915A0540915B05509147
:100E00005C05820F931FA41FB51F80936305909309
:100E10006405A0936505B09366050E949D05812F2A
:100E2000902F1F910F9108950F931F9381E191E0EF
:100E300060E070E040E050E00E94060582E191E051
:100E40000E94F3048AE291E00E94F30482E491E0BC
:100E50000E94F30483E891E00E94F30480EC91E0A7
:100E60000E94F30480E092E00E94F30481E492E0A7
:100E70000E94F30486E692E00E94F3048FE09DEF67
:100E8000909356058093550587E892E00E94F304FD
:100E90008CE892E00E94F3048DEA92E00E94F30451
:100EA0008FEC92E00E94F30486EF92E00E94F3043C
:100EB00081E293E00E94F3048DE493E00E94F30446
:100EC0000FEF1FEF109356050093550588E793E049
:100ED0000E94F30410935605009355058BEA93E0A6
:100EE00060E070E04EEB50E00E9406051F910F910C
:100EF00008950F931F93182F092F84E00E948209F1
:100F0000882311F00E943C0688E00E948209882311
:100F100011F00E94770680E10E948209882311F077
:100F20000E94010680E20E948209882311F00E943B
:100F3000B20680E80E9491098823A9F08091630598
:100F400090916405A0916505B09166050396A11D79
:100F5000B11D8093630590936405A0936505B093DC
:100F600066050E949D05812F902F1F910F91089576
:100F7000E1E6F0E080E8808310820E946A030E942C
:100F8000F4080E94A1091092630510926405109262
:100F90006505109266051092590510925A05109237
:100FA0005B0510925C05109274051092730581E048
:100FB00090E090936E0580936D05109270051092ED
:100FC0006F0585E090E09093620580936105109233
:100FD0007205109271058CE390E090936805809300
:100FE000670510926C0510926B0580E991E0A0E016
:100FF000B0E080935D0590935E05A0935F05B0938C
:1010000060050E94140708950E94B80780E991E0E6
:1010100090936A058093690589E797E042E350E081
:1010200060E070E021E030E00E940709409169052E
:1010300050916A05662757FD6095762F8DEE96E0F4
:1010400020E030E00E9407097894FFCF1F920F92B2
:101050000FB60F920BB60F9211249F92AF92BF92D0
:10106000CF92DF92EF92FF920F931F932F933F93B4
:101070004F935F936F937F938F939F93AF93BF93A0
:10108000CF93DF93EF93FF93BB248DE0C82ED12C39
:1010900099249394AA24AA947EC0EC9CE001ED9C30
:1010A000D00DFC9CD00D1124CB58DA4F2D813E8100
:1010B0004F81588589819A81AB81BC812817390776
:1010C0004A075B0708F452C090914605E92FF0E00B
:1010D000E85DFB4F8081B81608F048C088818823FE
:1010E00009F044C0F894EC9CF001ED9CF00DFC9CE0
:1010F000F00D1124EB58FA4F1582168217821086D4
:101100009082E92FEF5FE0934605F0E0E85DFB4F4A
:10111000B0827894EC9C8001ED9C100DFC9C100D2D
:1011200011240B581A4FD8011996ED91FC911A977A
:101130001B968D919C911C970995F8019487838744
:10114000F894EC9CF001ED9CF00DFC9CF00D11244A
:10115000EB58FA4F108280914605E82FF0E0E85DE9
:10116000FB4FA0828150809346057894EC9CF0015F
:10117000ED9CF00DFC9CF00D1124EB58FA4F85818D
:101180009681A781B0850196A11DB11D85839683A7
:10119000A783B087B394EB2CFF2480912704992771
:1011A00087FD90958E159F050CF077CFFF91EF91FD
:1011B000DF91CF91BF91AF919F918F917F916F916F
:1011C0005F914F913F912F911F910F91FF90EF9061
:1011D000DF90CF90BF90AF909F900F900BBE0F907D
:1011E0000FBE0F901F90189583E884BD85B583606E
:1011F00085BD81E080936E0016BC8FEF87BD08959A
:10120000882319F087BD279A089527980895EF92AB
:10121000FF920F931F93CF93DF937C0189018091FD
:101220002704C82FDD27C7FDD0952196CA30D105E8
:101230001CF0CFEFDFEF2CC0CB01BA010E94120EE1
:1012400025E732E04AEF5EE30E948A0B20E030E0BF
:1012500040E05FE30E945D0B0E94B4092DE030E0A6
:10126000C29FF001C39FF00DD29FF00D1124EB58E7
:10127000FA4F618372838383948365837683878344
:1012800090871082F286E18614870387C093270433
:10129000CE01DF91CF911F910F91FF90EF900895B4
:1012A000F8948091F9059091F90591709093F90562
:1012B000789485950895F8943091F80526B14CB14D
:1012C0004F67206842234095432720914A052423F5
:1012D000209520934A0530914905342332273093D5
:1012E0004905242323233091F80532273093F8054C
:1012F0004091F7053091F8052323242B2093F7051F
:1013000078940895F8949091F70589239091F705C2
:1013100098279093F705789408959091F80589237C
:101320000895F8949091F805F8942091F705909518
:10133000892382239091F70598279093F705789455
:1013400008956F98779A87B1837C87B988B18C6349
:1013500088B98BE599E04AE050E060E070E020E079
:1013600030E00E9407090895EF92FF920F931F93B8
:101370007B018C0120E030E040E05FE40E94300D12
:1013800088238CF0C801B70120E030E040E05FE442
:101390000E942C0B0E94BE0D9B01AC0120503040DE
:1013A0004040504806C0C801B7010E94BE0D9B01D5
:1013B000AC01B901CA011F910F91FF90EF90089500
:1013C000A0E0B0E0E6EEF9E00C94A710DC012B0100
:1013D000FA019C91923008F439C1EB018881823086
:1013E00008F433C1943069F4843009F02FC11196A8
:1013F0009C9111978981981709F428C1A7E3B4E05B
:1014000025C1843009F421C18230A9F4923009F059
:101410001DC19A01AD0188E0EA010990AE01E90120
:1014200009929E018150C1F7E201898111969C9138
:101430008923818308C1923009F407C112962D9047
:101440003C901397EB018A819B811496AD90BD90DF
:10145000CD90DC901797EC80FD800E811F8191016B
:10146000281B390BB90137FF04C066277727621B99
:10147000730B603271050CF061C0121613066CF527
:1014800037014801062E04C0969487947794679498
:101490000A94D2F721E030E040E050E004C0220F8F
:1014A000331F441F551F6A95D2F7215030404040EA
:1014B00050402E213F214023512321153105410564
:1014C000510521F021E030E040E050E079018A014F
:1014D000E628F728082919293CC0232BD1F1260E2C
:1014E000371E35014601062E04C0969487947794E2
:1014F00067940A94D2F721E030E040E050E004C065
:10150000220F331F441F551F6A95D2F721503040D8
:10151000404050402A213B214C215D2121153105BD
:101520004105510521F021E030E040E050E0590153
:101530006A01A628B728C828D9280BC082159305A8
:101540002CF01C01AA24BB24650103C0EE24FF2457
:10155000870111969C91D20111968C91981709F4EC
:1015600045C0992339F0A80197012A193B094C0974
:101570005D0906C0A60195012E193F09400B510BCC
:1015800057FD08C01182338222822483358346832B
:1015900057831DC081E08183338222828827992767
:1015A000DC01821B930BA40BB50B84839583A6836C
:1015B000B7830DC0220F331F441F551F248335836B
:1015C0004683578382819381019793838283248109
:1015D000358146815781DA01C9010197A109B10915
:1015E0008F5F9F4FAF4FBF4328F30BC09183338270
:1015F0002282EA0CFB1C0C1D1D1DE482F582068371
:10160000178383E08083248135814681578157FF8A
:101610001AC0C901AA2797FDA095BA2F81709070B2
:10162000A070B0705695479537952795822B932BD0
:10163000A42BB52B84839583A683B7838281938162
:10164000019693838283DF0101C0D201CD01CDB722
:10165000DEB7E2E10C94C310A0E2B0E0E2E3FBE00D
:101660000C94B31069837A838B839C832D833E8390
:101670004F835887E9E0EE2EF12CEC0EFD1ECE01D3
:101680000196B7010E94AF0F8E010F5E1F4FCE0172
:101690000596B8010E94AF0F8A8991E089278A8B4D
:1016A000C701B801AE01475E5F4F0E94E0090E948A
:1016B000DA0EA096E6E00C94CF10A0E2B0E0E3E6EC
:1016C000FBE00C94B31069837A838B839C832D8316
:1016D0003E834F835887F9E0EF2EF12CEC0EFD1E70
:1016E000CE010196B7010E94AF0F8E010F5E1F4F12
:1016F000CE010596B8010E94AF0FC701B801AE0137
:10170000475E5F4F0E94E0090E94DA0EA096E6E075
:101710000C94CF10A0E2B0E0E0E9FBE00C94A7103D
:1017200069837A838B839C832D833E834F83588781
:10173000CE010196BE01675F7F4F0E94AF0FCE01C1
:101740000596BE016F5E7F4F0E94AF0F9985923064
:1017500088F089898230C8F0943019F4823051F4CD
:1017600004C0843029F4923081F487E394E0C6C049
:10177000923049F420E09A858A89981321E02A87DB
:10178000CE010996BBC0823049F420E09A858A894F
:10179000981321E02A8BCE014196B0C02D843E845F
:1017A0004F8458886D887E888F88988CEE24FF241B
:1017B0008701AA24BB24650140E050E060E070E0AE
:1017C000E0E0F0E0C10181709070892BE9F0E60C57
:1017D000F71C081D191D9A01AB012A0D3B1D4C1D5C
:1017E0005D1D80E090E0A0E0B0E0E614F70408059D
:1017F000190520F481E090E0A0E0B0E0BA01A90171
:10180000480F591F6A1F7B1FAA0CBB1CCC1CDD1C78
:1018100097FE08C081E090E0A0E0B0E0A82AB92AD5
:10182000CA2ADB2A3196E032F10549F0660C771CB2
:10183000881C991C5694479437942794C3CFFA85F3
:10184000EA892B893C898B859C85280F391F2E5F5F
:101850003F4F17C0CA0181709070892B61F01695B7
:101860000795F794E79480E090E0A0E0B0E8E82ADC
:10187000F92A0A2B1B2B76956795579547952F5F6D
:101880003F4F77FDE7CF0CC0440F551F661F771FF2
:1018900017FD4160EE0CFF1C001F111F215030404E
:1018A000403090E0590790E0690790E4790760F3D1
:1018B0002B8F3C8FDB01CA018F779070A070B070C6
:1018C00080349105A105B10561F447FD0AC0E1141A
:1018D000F1040105110529F0405C5F4F6F4F7F4F08
:1018E00040781A8EFE1711F081E08A8F4D8F5E8F3F
:1018F0006F8F78A383E0898FCE0149960E94DA0E1C
:10190000A096E2E10C94C310A8E1B0E0EAE8FCE0A4
:101910000C94AF1069837A838B839C832D833E83E1
:101920004F835887B9E0EB2EF12CEC0EFD1ECE0153
:101930000196B7010E94AF0F8E010F5E1F4FCE01BF
:101940000596B8010E94AF0F2985223008F47EC0A9
:101950003989323010F4B8017CC08A859A89892788
:101960008A87243011F0223031F4231709F06EC039
:1019700067E374E06EC0343039F41D861E861F861E
:10198000188A1C861B8604C0323021F484E08987C3
:10199000B7015FC02B853C858B899C89281B390B3F
:1019A0003C872B87ED84FE840F851889AD88BE881F
:1019B000CF88D88CEA14FB040C051D0540F4EE0C0E
:1019C000FF1C001F111F215030403C872B8720E057
:1019D00030E040E050E080E090E0A0E0B0E460E083
:1019E00070E0EA14FB040C051D0540F0282B392B90
:1019F0004A2B5B2BEA18FB080C091D09B695A79525
:101A000097958795EE0CFF1C001F111F6F5F7F4F8E
:101A10006F31710531F7DA01C9018F779070A070CD
:101A2000B07080349105A105B10561F427FD0AC0AD
:101A3000E114F1040105110529F0205C3F4F4F4FDF
:101A40005F4F20782D873E874F87588BBE01675F99
:101A50007F4FCB010E94DA0E6896EAE00C94CB101F
:101A6000A8E1B0E0E6E3FDE00C94B31069837A836B
:101A70008B839C832D833E834F83588789E0E82E98
:101A8000F12CEC0EFD1ECE010196B7010E94AF0FA6
:101A90008E010F5E1F4FCE010596B8010E94AF0F59
:101AA0008985823040F08989823028F0C701B801E9
:101AB0000E94271001C08FEF6896E6E00C94CF10CB
:101AC000A8E0B0E0E6E6FDE00C94B0109B01AC01AC
:101AD00083E08983DA01C9018827B7FD83959927B7
:101AE000AA27BB27B82E211531054105510519F448
:101AF00082E089833AC08823A9F0203080E038074B
:101B000080E0480780E8580729F460E070E080E052
:101B10009FEC30C0EE24FF248701E21AF30A040B85
:101B2000150B02C079018A018EE1C82ED12CDC820E
:101B3000CB82ED82FE820F831887C801B7010E9415
:101B40008B0E01971816190684F4082E04C0EE0CAB
:101B5000FF1C001F111F0A94D2F7ED82FE820F8333
:101B60001887C81AD90ADC82CB82BA82CE010196C4
:101B70000E94DA0E2896E9E00C94CC10ACE0B0E0BC
:101B8000E4ECFDE00C94B71069837A838B839C832B
:101B9000CE010196BE016B5F7F4F0E94AF0F8D811A
:101BA000823061F1823050F1843021F48E818823BB
:101BB00051F12EC02F81388537FD20C06E812F3125
:101BC00031051CF06623F9F023C08EE190E0821B02
:101BD000930B29853A854B855C8504C056954795BE
:101BE000379527958A95D2F76623B1F050954095A1
:101BF000309521953F4F4F4F5F4F0EC020E030E0B2
:101C000040E050E009C02FEF3FEF4FEF5FE704C027
:101C100020E030E040E050E8B901CA012C96E2E053
:101C20000C94D310A8E0B0E0E8E1FEE00C94AF1013
:101C30007B018C01611571058105910519F482E024
:101C4000898360C083E089838EE1C82ED12CDC8239
:101C5000CB82ED82FE820F831887C801B7010E94F4
:101C60008B0EFC013197F7FF3BC0222733272E1B39
:101C70003F0B57016801022E04C0D694C794B79455
:101C8000A7940A94D2F740E050E060E070E081E071
:101C900090E0A0E0B0E004C0880F991FAA1FBB1F0E
:101CA0002A95D2F70197A109B1098E219F21A0237E
:101CB000B1230097A105B10521F041E050E060E0BB
:101CC00070E04A295B296C297D294D835E836F83EF
:101CD00078878EE190E08E1B9F0B9C838B8312C0D4
:101CE000309781F00E2E04C0EE0CFF1C001F111F58
:101CF0000A94D2F7ED82FE820F831887CE1ADF0A8C
:101D0000DC82CB821A82CE0101960E94DA0E2896DE
:101D1000EAE00C94CB10EF92FF920F931F937B019C
:101D20008C0180E0E81680E0F80681E0080780E09A
:101D3000180788F48FEFE816F1040105110531F05A
:101D400028F088E090E0A0E0B0E017C080E090E0EC
:101D5000A0E0B0E012C080E0E81680E0F80680E085
:101D6000080781E0180728F088E190E0A0E0B0E0E3
:101D700004C080E190E0A0E0B0E020E230E040E08C
:101D800050E0281B390B4A0B5B0B04C016950795D6
:101D9000F794E7948A95D2F7F701E15CFB4F8081D5
:101DA000281B310941095109C9011F910F91FF9069
:101DB000EF900895DF92EF92FF920F931F93FC0133
:101DC000E480F58006811781D1808081823048F4DB
:101DD00080E090E0A0E1B0E0E82AF92A0A2B1B2B72
:101DE000A5C0843009F49FC0823021F4EE24FF2482
:101DF000870105C0E114F1040105110519F4E0E0C3
:101E0000F0E096C0628173819FEF623879070CF031
:101E10005BC022E83FEF261B370B2A3131052CF03F
:101E200020E030E040E050E02AC0B801A701022ED7
:101E300004C076956795579547950A94D2F781E047
:101E400090E0A0E0B0E004C0880F991FAA1FBB1F5C
:101E50002A95D2F70197A109B1098E219F21A023CC
:101E6000B1230097A105B10521F081E090E0A0E049
:101E7000B0E09A01AB01282B392B4A2B5B2BDA01FE
:101E8000C9018F779070A070B07080349105A10562
:101E9000B10539F427FF09C0205C3F4F4F4F5F4F1A
:101EA00004C0215C3F4F4F4F5F4FE0E0F0E0203037
:101EB000A0E03A07A0E04A07A0E45A0710F0E1E0EA
:101EC000F0E079018A0127C06038710564F5FB01F3
:101ED000E158FF4FD801C7018F779070A070B070A4
:101EE00080349105A105B10539F4E7FE0DC080E409
:101EF00090E0A0E0B0E004C08FE390E0A0E0B0E0AC
:101F0000E80EF91E0A1F1B1F17FF05C0169507953F
:101F1000F794E794319687E016950795F794E79440
:101F20008A95D1F705C0EE24FF248701EFEFF0E09A
:101F30006E2F679566276795902F9F77D794DD243E
:101F4000D7948E2F8695492F462B582F5D29B701A0
:101F5000CA011F910F91FF90EF90DF900895FC014F
:101F6000DB01408151812281622F6F7770E0221F57
:101F70002227221F9381892F880F822B282F30E060
:101F8000991F9927991F11969C9311972115310537
:101F9000A9F5411551056105710511F482E037C0BD
:101FA00082E89FEF13969C938E9312979A01AB0150
:101FB00067E0220F331F441F551F6A95D1F783E056
:101FC0008C930DC0220F331F441F551F12968D9105
:101FD0009C911397019713969C938E9312972030A0
:101FE00080E0380780E0480780E4580758F31496EB
:101FF0002D933D934D935C93179708952F3F310593
:1020000079F4411551056105710519F484E08C934B
:10201000089564FF03C081E08C9312C01C9210C02D
:102020002F57304013963C932E93129783E08C9356
:1020300087E0440F551F661F771F8A95D1F770649C
:1020400014964D935D936D937C93179708951F930A
:10205000DC01FB019C91923008F447C08081823002
:1020600008F443C0943051F411961C91843099F5D2
:102070008181682F70E0611B71093FC0843021F0BD
:10208000923031F48230B9F18181882389F12DC0F9
:1020900011961C9111978230F1F081811817D9F4B3
:1020A00012962D913C911397828193818217930709
:1020B00094F028173907BCF014968D919D910D90DE
:1020C000BC91A02D2481358146815781281739077D
:1020D0004A075B0718F4112341F00AC082179307DF
:1020E000A407B50740F4112319F061E070E005C0C2
:1020F0006FEF7FEF02C060E070E0CB011F910895A9
:1021000097FB092E07260AD077FD04D00CD006D005
:1021100000201AF4709561957F4F0895F6F7909519
:1021200081959F4F0895AA1BBB1B51E107C0AA1FB1
:10213000BB1FA617B70710F0A61BB70B881F991F68
:102140005A95A9F780959095BC01CD0108952F92DD
:102150003F924F925F926F927F928F929F92AF9237
:10216000BF92CF92DF92EF92FF920F931F93CF9384
:10217000DF93CDB7DEB7CA1BDB0B0FB6F894DEBF1B
:102180000FBECDBF09942A88398848885F846E8441
:102190007D848C849B84AA84B984C884DF80EE808B
:1021A000FD800C811B81AA81B981CE0FD11D0FB694
:1021B000F894DEBF0FBECDBFED010895CF93DF933E
:1021C000BC018230910510F462E070E0A091FC0542
:1021D000B091FD05ED01E0E0F0E040E050E021C00D
:1021E000888199818617970769F48A819B81309746
:1021F00019F09383828304C09093FD058093FC05BE
:10220000FE0134C06817790738F44115510519F0FB
:102210008417950708F4AC01FE018A819B819C011B
:10222000E9012097E9F641155105A9F1CA01861B7C
:10223000970B049708F4BA01E0E0F0E02AC08D9112
:102240009C91119784179507F9F46417750781F429
:1022500012968D919C911397309719F093838283F6
:1022600004C09093FD058093FC05FD0132964FC09C
:10227000CA01861B970BFD01E80FF91F619371934B
:1022800002978D939C9343C0FD01828193819C01B1
:10229000D9011097A1F68091FA059091FB05892B41
:1022A00041F480914105909142059093FB05809304
:1022B000FA0540914305509144054115510541F4FB
:1022C0004DB75EB780913F0590914005481B590B73
:1022D0002091FA053091FB0524173507B0F4CA01A7
:1022E000821B930B8617970780F0AB014E5F5F4F01
:1022F0008417950750F0420F531F5093FB054093EE
:10230000FA05F9016193719302C0E0E0F0E0CF01BA
:10231000DF91CF910895CF93DF93009709F450C0D8
:10232000EC0122971B821A82A091FC05B091FD0559
:10233000109709F140E050E0AC17BD0708F1BB83EE
:10234000AA83FE0121913191E20FF31FAE17BF075F
:1023500079F48D919C911197280F391F2E5F3F4F73
:102360003983288312968D919C9113979B838A833E
:102370004115510571F4D093FD05C093FC0520C0B3
:1023800012968D919C911397AD01009711F0DC018D
:10239000D3CFFA01D383C28321913191E20FF31F8E
:1023A000CE17DF0769F488819981280F391F2E5FC6
:1023B0003F4FFA01318320838A819B8193838283FB
:1023C000DF91CF910895FA01CF93FF93EF932230DD
:1023D00044F1253234F5C22FE894CA3049F497FB12
:1023E0003EF490958095709561957F4F8F4F9F4FEC
:1023F0002C2F332744275527FF93EF930E94271252
:10240000EF91FF91605D6A330CF0695D6193B901F2
:10241000CA01605070408040904051F716F4CDE200
:10242000C19310828F919F91CF910C941712DC0170
:10243000FC01672F71917723E1F7329704C07C91FB
:102440006D9370836291AE17BF07C8F30895A1E240
:102450001A2EAA1BBB1BFD010DC0AA1FBB1FEE1F1E
:10246000FF1FA217B307E407F50720F0A21BB30B69
:10247000E40BF50B661F771F881F991F1A9469F7E5
:1024800060957095809590959B01AC01BD01CF0141
:062490000895F894FFCF4F
:102496004D6F6E65793A20004761696E3A20002BD0
:1024A60000002020202020202020202020205F2027
:1024B60020202020202020200A002020202020204C
:1024C6002020202020285F292020202020202020B6
:1024D6000A002020202020205F205F5F20205F2030
:1024E600205F5F5F2020202020205F205F5F20206C
:1024F6005F205F5F205F5F5F20205F5F5F205F5F21
:102506005F20205F5F5F205F205F5F20202020200C
:1025160020200020202020207C20275F205C7C209B
:102526007C2F205F205C202020207C20275F205CE1
:102536007C20275F5F2F205F205C2F205F5F2F208E
:102546005F5F7C2F205F205C20275F5F7C200A0076
:1025560020202020207C207C5F29207C207C2020BD
:102566005F5F2F202020207C207C5F29207C207C20
:10257600207C20205F5F2F5C5F5F205C5F5F205CBC
:1025860020205F5F2F207C202020202020200A0092
:1025960020202020207C202E5F5F2F7C5F7C5C5FCC
:1025A6005F5F7C202020207C202E5F5F2F7C5F7C5D
:1025B60020205C5F5F5F7C7C5F5F5F2F5F5F5F2FCC
:1025C6005C5F5F5F7C5F7C20202020202020200A2B
:1025D6000020202020207C207C202020202020205D
:1025E60020202020202020207C207C20202020202D
:1025F600202020200A0020202020207C5F7C202014
:10260600202020202020202020202020207C5F7CCD
:1026160020202020200A000A0A0A0A002020202062
:1026260020202020202020202020202020202020A4
:1026360020202020202020202028200A00202020C2
:102646002020202020202020202020202020202084
:10265600202020202020202020202029200A0020A1
:102666002020202020202020202020202020202064
:1026760020202020202020205F5F2E2E2D2D2D2E85
:102686002E5F5F200A0020202020202020202020EE
:1026960020202020202020202020202C2D3D2720F7
:1026A600202F20207C20205C2020603D2D2E200A1B
:1026B6000020202020202020202020202020202034
:1026C60020202020203A2D2D2E2E5F5F5F5F5F5F3A
:1026D6005F5F5F5F5F2E2E2D2D3B200A002020209E
:1026E60020202020202020202020202020202020E4
:1026F60020205C2E2C5F5F5F5F5F5F5F5F5F5F5FC9
:102706005F5F2C2E2F200A000A2020202020202068
:1027160020202020707265737320746865206D69AF
:1027260064646C6520627574746F6E20746F206DBE
:10273600616B65206D6F6E657921003C204275796D
:10274600204769726C2053636F75742028333030CC
:102756006729202020202020202020202020202023
:102766003E20427579204772616E646D6120283182
:102776003030306729200A5E204275792046616331
:10278600746F727920283830303067292020202055
:102796002020202020202020202020207620427566
:1027A60079205069652052656163746F72202835FF
:1027B60030303030672900FFFF00000000000000C5
:1027C600000000FF00000000000000000000000004
:1027D60001020203030303040404040404040405BD
:1027E6000505050505050505050505050505050692
:1027F6000606060606060606060606060606060673
:102806000606060606060606060606060606060761
:102816000707070707070707070707070707070742
:102826000707070707070707070707070707070732
:102836000707070707070707070707070707070722
:102846000707070707070707070707070707070811
:1028560008080808080808080808080808080808F2
:1028660008080808080808080808080808080808E2
:1028760008080808080808080808080808080808D2
:1028860008080808080808080808080808080808C2
:1028960008080808080808080808080808080808B2
:1028A60008080808080808080808080808080808A2
:1028B6000808080808080808080808080808080892
:1028C600080808080808080808080808080808206A
:0628D60000FE05000000F9
:00000001FF
